{
  "contractName": "CrowdfundingCampaign",
  "abi": [
    {
      "inputs": [],
      "payable": false,
      "stateMutability": "nonpayable",
      "type": "constructor"
    },
    {
      "constant": true,
      "inputs": [],
      "name": "CurrentNumberOfProjects",
      "outputs": [
        {
          "internalType": "uint16",
          "name": "",
          "type": "uint16"
        }
      ],
      "payable": false,
      "stateMutability": "view",
      "type": "function"
    },
    {
      "constant": true,
      "inputs": [
        {
          "internalType": "uint256",
          "name": "",
          "type": "uint256"
        }
      ],
      "name": "ListOfProjects",
      "outputs": [
        {
          "internalType": "address payable",
          "name": "projectOwnerAddress",
          "type": "address"
        },
        {
          "internalType": "enum CrowdfundingCampaign.ProjectStatus",
          "name": "projectStatus",
          "type": "uint8"
        },
        {
          "internalType": "uint32",
          "name": "projectID",
          "type": "uint32"
        },
        {
          "internalType": "string",
          "name": "projectName",
          "type": "string"
        },
        {
          "internalType": "string",
          "name": "projectDescription",
          "type": "string"
        },
        {
          "internalType": "string",
          "name": "projectStartDate",
          "type": "string"
        },
        {
          "internalType": "string",
          "name": "projectEndDate",
          "type": "string"
        },
        {
          "internalType": "uint64",
          "name": "totalMoneyNeeded",
          "type": "uint64"
        },
        {
          "internalType": "uint64",
          "name": "totalMoneyCollected",
          "type": "uint64"
        },
        {
          "internalType": "uint32",
          "name": "totalContributors",
          "type": "uint32"
        }
      ],
      "payable": false,
      "stateMutability": "view",
      "type": "function"
    },
    {
      "constant": true,
      "inputs": [],
      "name": "ProjectOwnerAddress",
      "outputs": [
        {
          "internalType": "address payable",
          "name": "",
          "type": "address"
        }
      ],
      "payable": false,
      "stateMutability": "view",
      "type": "function"
    },
    {
      "constant": false,
      "inputs": [
        {
          "internalType": "string",
          "name": "_projectName",
          "type": "string"
        },
        {
          "internalType": "string",
          "name": "_projectDescription",
          "type": "string"
        },
        {
          "internalType": "string",
          "name": "_projectStartDate",
          "type": "string"
        },
        {
          "internalType": "string",
          "name": "_projectEndDate",
          "type": "string"
        },
        {
          "internalType": "uint64",
          "name": "_moneyNeeded",
          "type": "uint64"
        }
      ],
      "name": "CreateNewProject",
      "outputs": [],
      "payable": false,
      "stateMutability": "nonpayable",
      "type": "function"
    },
    {
      "constant": false,
      "inputs": [
        {
          "internalType": "uint32",
          "name": "_projectID",
          "type": "uint32"
        },
        {
          "internalType": "uint64",
          "name": "_moneyContributed",
          "type": "uint64"
        }
      ],
      "name": "ContributeToAProject",
      "outputs": [],
      "payable": false,
      "stateMutability": "nonpayable",
      "type": "function"
    },
    {
      "constant": false,
      "inputs": [
        {
          "internalType": "uint32",
          "name": "_projectID",
          "type": "uint32"
        }
      ],
      "name": "DeactivateProject",
      "outputs": [],
      "payable": false,
      "stateMutability": "nonpayable",
      "type": "function"
    }
  ],
  "bytecode": "0x608060405234801561001057600080fd5b50336000806101000a81548173ffffffffffffffffffffffffffffffffffffffff021916908373ffffffffffffffffffffffffffffffffffffffff1602179055506113a6806100606000396000f3fe608060405234801561001057600080fd5b50600436106100625760003560e01c806313a9fd3b146100675780632d267dfa146102f6578063753f06c51461031c578063aeac3453146105b0578063bdc0c8aa146105fa578063c44c2c2a14610642575b600080fd5b6100936004803603602081101561007d57600080fd5b8101908080359060200190929190505050610676565b604051808b73ffffffffffffffffffffffffffffffffffffffff1673ffffffffffffffffffffffffffffffffffffffff1681526020018a60038111156100d557fe5b60ff1681526020018963ffffffff1663ffffffff168152602001806020018060200180602001806020018867ffffffffffffffff1667ffffffffffffffff1681526020018767ffffffffffffffff1667ffffffffffffffff1681526020018663ffffffff1663ffffffff16815260200185810385528c818151815260200191508051906020019080838360005b8381101561017d578082015181840152602081019050610162565b50505050905090810190601f1680156101aa5780820380516001836020036101000a031916815260200191505b5085810384528b818151815260200191508051906020019080838360005b838110156101e35780820151818401526020810190506101c8565b50505050905090810190601f1680156102105780820380516001836020036101000a031916815260200191505b5085810383528a818151815260200191508051906020019080838360005b8381101561024957808201518184015260208101905061022e565b50505050905090810190601f1680156102765780820380516001836020036101000a031916815260200191505b50858103825289818151815260200191508051906020019080838360005b838110156102af578082015181840152602081019050610294565b50505050905090810190601f1680156102dc5780820380516001836020036101000a031916815260200191505b509e50505050505050505050505050505060405180910390f35b6102fe6109ac565b604051808261ffff1661ffff16815260200191505060405180910390f35b6105ae600480360360a081101561033257600080fd5b810190808035906020019064010000000081111561034f57600080fd5b82018360208201111561036157600080fd5b8035906020019184600183028401116401000000008311171561038357600080fd5b91908080601f016020809104026020016040519081016040528093929190818152602001838380828437600081840152601f19601f820116905080830192505050505050509192919290803590602001906401000000008111156103e657600080fd5b8201836020820111156103f857600080fd5b8035906020019184600183028401116401000000008311171561041a57600080fd5b91908080601f016020809104026020016040519081016040528093929190818152602001838380828437600081840152601f19601f8201169050808301925050505050505091929192908035906020019064010000000081111561047d57600080fd5b82018360208201111561048f57600080fd5b803590602001918460018302840111640100000000831117156104b157600080fd5b91908080601f016020809104026020016040519081016040528093929190818152602001838380828437600081840152601f19601f8201169050808301925050505050505091929192908035906020019064010000000081111561051457600080fd5b82018360208201111561052657600080fd5b8035906020019184600183028401116401000000008311171561054857600080fd5b91908080601f016020809104026020016040519081016040528093929190818152602001838380828437600081840152601f19601f820116905080830192505050505050509192919290803567ffffffffffffffff1690602001909291905050506109c0565b005b6105b8610d2e565b604051808273ffffffffffffffffffffffffffffffffffffffff1673ffffffffffffffffffffffffffffffffffffffff16815260200191505060405180910390f35b6106406004803603604081101561061057600080fd5b81019080803563ffffffff169060200190929190803567ffffffffffffffff169060200190929190505050610d53565b005b6106746004803603602081101561065857600080fd5b81019080803563ffffffff1690602001909291905050506110a9565b005b6001818154811061068357fe5b90600052602060002090600702016000915090508060000160009054906101000a900473ffffffffffffffffffffffffffffffffffffffff16908060000160149054906101000a900460ff16908060000160159054906101000a900463ffffffff1690806001018054600181600116156101000203166002900480601f01602080910402602001604051908101604052809291908181526020018280546001816001161561010002031660029004801561077e5780601f106107535761010080835404028352916020019161077e565b820191906000526020600020905b81548152906001019060200180831161076157829003601f168201915b505050505090806002018054600181600116156101000203166002900480601f01602080910402602001604051908101604052809291908181526020018280546001816001161561010002031660029004801561081c5780601f106107f15761010080835404028352916020019161081c565b820191906000526020600020905b8154815290600101906020018083116107ff57829003601f168201915b505050505090806003018054600181600116156101000203166002900480601f0160208091040260200160405190810160405280929190818152602001828054600181600116156101000203166002900480156108ba5780601f1061088f576101008083540402835291602001916108ba565b820191906000526020600020905b81548152906001019060200180831161089d57829003601f168201915b505050505090806004018054600181600116156101000203166002900480601f0160208091040260200160405190810160405280929190818152602001828054600181600116156101000203166002900480156109585780601f1061092d57610100808354040283529160200191610958565b820191906000526020600020905b81548152906001019060200180831161093b57829003601f168201915b5050505050908060050160009054906101000a900467ffffffffffffffff16908060050160089054906101000a900467ffffffffffffffff16908060050160109054906101000a900463ffffffff1690508a565b600060149054906101000a900461ffff1681565b6000809054906101000a900473ffffffffffffffffffffffffffffffffffffffff1673ffffffffffffffffffffffffffffffffffffffff163373ffffffffffffffffffffffffffffffffffffffff1614610a65576040517f08c379a000000000000000000000000000000000000000000000000000000000815260040180806020018281038252602c815260200180611346602c913960400191505060405180910390fd5b6000601481819054906101000a900461ffff168092919060010191906101000a81548161ffff021916908361ffff16021790555050610aa261119f565b6040518061014001604052806000809054906101000a900473ffffffffffffffffffffffffffffffffffffffff1673ffffffffffffffffffffffffffffffffffffffff16815260200160006003811115610af857fe5b8152602001600060149054906101000a900461ffff1661ffff1663ffffffff1681526020018781526020018681526020018581526020018481526020018367ffffffffffffffff168152602001600067ffffffffffffffff168152602001600063ffffffff1681525090506001819080600181540180825580915050906001820390600052602060002090600702016000909192909190915060008201518160000160006101000a81548173ffffffffffffffffffffffffffffffffffffffff021916908373ffffffffffffffffffffffffffffffffffffffff16021790555060208201518160000160146101000a81548160ff02191690836003811115610bfc57fe5b021790555060408201518160000160156101000a81548163ffffffff021916908363ffffffff1602179055506060820151816001019080519060200190610c44929190611233565b506080820151816002019080519060200190610c61929190611233565b5060a0820151816003019080519060200190610c7e929190611233565b5060c0820151816004019080519060200190610c9b929190611233565b5060e08201518160050160006101000a81548167ffffffffffffffff021916908367ffffffffffffffff1602179055506101008201518160050160086101000a81548167ffffffffffffffff021916908367ffffffffffffffff1602179055506101208201518160050160106101000a81548163ffffffff021916908363ffffffff160217905550505050505050505050565b6000809054906101000a900473ffffffffffffffffffffffffffffffffffffffff1681565b6000809054906101000a900473ffffffffffffffffffffffffffffffffffffffff1673ffffffffffffffffffffffffffffffffffffffff163373ffffffffffffffffffffffffffffffffffffffff161415610df9576040517f08c379a00000000000000000000000000000000000000000000000000000000081526004018080602001828103825260338152602001806113136033913960400191505060405180910390fd5b600080610e046112b3565b60405180604001604052803373ffffffffffffffffffffffffffffffffffffffff1681526020018567ffffffffffffffff1681525090506001850363ffffffff16925060018381548110610e5457fe5b9060005260206000209060070201600501601081819054906101000a900463ffffffff168092919060010191906101000a81548163ffffffff021916908363ffffffff1602179055505060018381548110610eab57fe5b906000526020600020906007020160050160109054906101000a900463ffffffff1691508060018481548110610edd57fe5b906000526020600020906007020160060160008463ffffffff1663ffffffff16815260200190815260200160002060008201518160000160006101000a81548173ffffffffffffffffffffffffffffffffffffffff021916908373ffffffffffffffffffffffffffffffffffffffff16021790555060208201518160000160146101000a81548167ffffffffffffffff021916908367ffffffffffffffff1602179055509050508360018481548110610f9257fe5b906000526020600020906007020160050160088282829054906101000a900467ffffffffffffffff160192506101000a81548167ffffffffffffffff021916908367ffffffffffffffff16021790555060018381548110610fef57fe5b906000526020600020906007020160050160009054906101000a900467ffffffffffffffff1667ffffffffffffffff166001848154811061102c57fe5b906000526020600020906007020160050160089054906101000a900467ffffffffffffffff1667ffffffffffffffff16106110a25760036001848154811061107057fe5b906000526020600020906007020160000160146101000a81548160ff0219169083600381111561109c57fe5b02179055505b5050505050565b6000809054906101000a900473ffffffffffffffffffffffffffffffffffffffff1673ffffffffffffffffffffffffffffffffffffffff163373ffffffffffffffffffffffffffffffffffffffff161461114e576040517f08c379a000000000000000000000000000000000000000000000000000000000815260040180806020018281038252602c815260200180611346602c913960400191505060405180910390fd5b60006001820363ffffffff169050600180828154811061116a57fe5b906000526020600020906007020160000160146101000a81548160ff0219169083600381111561119657fe5b02179055505050565b604051806101400160405280600073ffffffffffffffffffffffffffffffffffffffff168152602001600060038111156111d557fe5b8152602001600063ffffffff16815260200160608152602001606081526020016060815260200160608152602001600067ffffffffffffffff168152602001600067ffffffffffffffff168152602001600063ffffffff1681525090565b828054600181600116156101000203166002900490600052602060002090601f016020900481019282601f1061127457805160ff19168380011785556112a2565b828001600101855582156112a2579182015b828111156112a1578251825591602001919060010190611286565b5b5090506112af91906112ed565b5090565b6040518060400160405280600073ffffffffffffffffffffffffffffffffffffffff168152602001600067ffffffffffffffff1681525090565b61130f91905b8082111561130b5760008160009055506001016112f3565b5090565b9056fe4f6e6c792067697665207065726d697373696f6e20666f72207468652070726f6a656374277320636f6e7472696275746f72734f6e6c79207468652070726f6a656374206f776e65722063616e2075736520746869732066756e6374696f6ea265627a7a723158201619331f7cee47f1d548ab4827103eb6e5eb795e4a22c69a0e13be34b473532864736f6c634300050c0032",
  "source": "pragma solidity ^0.5.11;\r\n\r\ncontract CrowdfundingCampaign\r\n{\r\n    // Enum\r\n    enum ProjectStatus \r\n    { \r\n        Activated,\r\n        Deactivated,\r\n        Expired,\r\n        CompletelyFunded\r\n    }\r\n    \r\n    // State variables\r\n    address payable public ProjectOwnerAddress;\r\n    uint16 public CurrentNumberOfProjects;\r\n    \r\n    // Constructor\r\n    constructor() public\r\n    {\r\n        ProjectOwnerAddress = msg.sender;\r\n    }    \r\n    // Structs\r\n    struct Project\r\n    {\r\n        address payable projectOwnerAddress;\r\n        ProjectStatus projectStatus;\r\n        uint32 projectID;\r\n        string projectName;\r\n        string projectDescription;\r\n        string projectStartDate;\r\n        string projectEndDate;\r\n        uint64 totalMoneyNeeded;\r\n        uint64 totalMoneyCollected;\r\n        uint32 totalContributors;\r\n        mapping (uint32 => Contributor) ProjectFundingHistory;\r\n    }\r\n    Project[] public ListOfProjects;\r\n    \r\n    struct Contributor\r\n    {\r\n        address payable contributor;\r\n        uint64 moneyContributed;\r\n    }\r\n    \r\n    /*\r\n        Currently using for functions:\r\n            + CreateNewProject\r\n    */\r\n    modifier OwnerPermission()\r\n    {\r\n        require(msg.sender == ProjectOwnerAddress, \"Only the project owner can use this function\");\r\n        _;\r\n    }\r\n    \r\n    /*\r\n        Currently using for functions:\r\n            + CreateNewProject\r\n    */\r\n    modifier ContributorPermission()\r\n    {\r\n        require(msg.sender != ProjectOwnerAddress, \"Only give permission for the project's contributors\");\r\n        _;\r\n    }\r\n    \r\n    function CreateNewProject\r\n    (\r\n        string memory _projectName,\r\n        string memory _projectDescription,\r\n        string memory _projectStartDate,\r\n        string memory _projectEndDate,\r\n        uint64 _moneyNeeded\r\n    ) public OwnerPermission\r\n    {\r\n        CurrentNumberOfProjects++;\r\n        Project memory newProject = Project({\r\n                                                projectOwnerAddress: ProjectOwnerAddress,\r\n                                                projectStatus: ProjectStatus.Activated,\r\n                                                projectID: CurrentNumberOfProjects,\r\n                                                projectName: _projectName,\r\n                                                projectDescription: _projectDescription,\r\n                                                projectStartDate: _projectStartDate,\r\n                                                projectEndDate: _projectEndDate,\r\n                                                totalMoneyNeeded: _moneyNeeded,\r\n                                                totalMoneyCollected: 0,\r\n                                                totalContributors: 0\r\n                                            });\r\n        ListOfProjects.push(newProject);\r\n    }\r\n        \r\n    function ContributeToAProject (uint32 _projectID, uint64 _moneyContributed) public ContributorPermission\r\n    {\r\n        uint projectIndex;\r\n        uint32 contributionHistoryIndex;\r\n        Contributor memory newContributor = Contributor({contributor: msg.sender, moneyContributed: _moneyContributed});\r\n        \r\n        projectIndex = _projectID - 1;\r\n        ListOfProjects[projectIndex].totalContributors++;\r\n        contributionHistoryIndex = ListOfProjects[projectIndex].totalContributors;\r\n        // add new contributor to the project's history funding list\r\n        ListOfProjects[projectIndex].ProjectFundingHistory[contributionHistoryIndex] = newContributor;\r\n        // Update total money funded\r\n        ListOfProjects[projectIndex].totalMoneyCollected += _moneyContributed;\r\n        if (ListOfProjects[projectIndex].totalMoneyCollected >= ListOfProjects[projectIndex].totalMoneyNeeded)\r\n        {\r\n            ListOfProjects[projectIndex].projectStatus = ProjectStatus.CompletelyFunded;\r\n        }\r\n    }\r\n        \r\n    function DeactivateProject (uint32 _projectID) public OwnerPermission\r\n    {\r\n        uint projectIndex;\r\n        \r\n        projectIndex = _projectID - 1;\r\n        ListOfProjects[projectIndex].projectStatus = ProjectStatus.Deactivated;\r\n    }\r\n}",
  "sourcePath": "D:/OneDrive - gm.uit.edu.vn/8. Research/Blockchain/3. Implementation/Smart contract/Crowdfunding/contracts/CrowdfundingCampaign.sol",
  "compiler": {
    "name": "solc",
    "version": "0.5.12+commit.7709ece9.Emscripten.clang"
  },
  "schemaVersion": "3.0.18",
  "updatedAt": "2019-11-19T04:44:42.544Z",
  "networkType": "ethereum",
  "devdoc": {
    "methods": {}
  },
  "userdoc": {
    "methods": {}
  }
}